{
  "contractName": "Storage",
  "abi": [
    {
      "inputs": [
        {
          "internalType": "uint256",
          "name": "num",
          "type": "uint256"
        }
      ],
      "name": "store",
      "outputs": [],
      "stateMutability": "nonpayable",
      "type": "function"
    },
    {
      "inputs": [],
      "name": "retrieve",
      "outputs": [
        {
          "internalType": "uint256",
          "name": "",
          "type": "uint256"
        }
      ],
      "stateMutability": "view",
      "type": "function"
    },
    {
      "inputs": [
        {
          "internalType": "string",
          "name": "_name",
          "type": "string"
        }
      ],
      "name": "setName",
      "outputs": [],
      "stateMutability": "nonpayable",
      "type": "function"
    },
    {
      "inputs": [],
      "name": "getName",
      "outputs": [
        {
          "internalType": "string",
          "name": "",
          "type": "string"
        }
      ],
      "stateMutability": "view",
      "type": "function"
    },
    {
      "inputs": [
        {
          "internalType": "uint256[]",
          "name": "_numbers",
          "type": "uint256[]"
        }
      ],
      "name": "sumNumbersBySolidity",
      "outputs": [
        {
          "internalType": "uint256",
          "name": "result",
          "type": "uint256"
        }
      ],
      "stateMutability": "pure",
      "type": "function"
    },
    {
      "inputs": [
        {
          "internalType": "string[]",
          "name": "_numbers",
          "type": "string[]"
        }
      ],
      "name": "sumNumbersByAssembly",
      "outputs": [
        {
          "internalType": "uint256",
          "name": "result",
          "type": "uint256"
        }
      ],
      "stateMutability": "pure",
      "type": "function"
    }
  ],
  "bytecode": "0x608060405234801561001057600080fd5b50610935806100206000396000f3fe608060405234801561001057600080fd5b50600436106100625760003560e01c806301bfde621461006757806317d7de7c146100975780632e64cec1146100b55780636057361d146100d3578063c47f0027146100ef578063da78325f1461010b575b600080fd5b610081600480360381019061007c9190610528565b61013b565b60405161008e919061063d565b60405180910390f35b61009f6101b3565b6040516100ac919061061b565b60405180910390f35b6100bd610245565b6040516100ca919061063d565b60405180910390f35b6100ed60048036038101906100e891906105aa565b61024e565b005b61010960048036038101906101049190610569565b610258565b005b610125600480360381019061012091906104e7565b610272565b604051610132919061063d565b60405180910390f35b600080600090505b82518110156101ad57828181518110610185577f4e487b7100000000000000000000000000000000000000000000000000000000600052603260045260246000fd5b602002602001015182610198919061072d565b915080806101a590610801565b915050610143565b50919050565b6060600180546101c2906107cf565b80601f01602080910402602001604051908101604052809291908181526020018280546101ee906107cf565b801561023b5780601f106102105761010080835404028352916020019161023b565b820191906000526020600020905b81548152906001019060200180831161021e57829003601f168201915b5050505050905090565b60008054905090565b8060008190555050565b806001908051906020019061026e9291906102aa565b5050565b600080600090505b82518110156102a4576020810260208401015182019150808061029c90610801565b91505061027a565b50919050565b8280546102b6906107cf565b90600052602060002090601f0160209004810192826102d8576000855561031f565b82601f106102f157805160ff191683800117855561031f565b8280016001018555821561031f579182015b8281111561031e578251825591602001919060010190610303565b5b50905061032c9190610330565b5090565b5b80821115610349576000816000905550600101610331565b5090565b600061036061035b84610689565b610658565b9050808382526020820190508260005b858110156103a0578135850161038688826104a8565b845260208401935060208301925050600181019050610370565b5050509392505050565b60006103bd6103b8846106b5565b610658565b905080838252602082019050828560208602820111156103dc57600080fd5b60005b8581101561040c57816103f288826104d2565b8452602084019350602083019250506001810190506103df565b5050509392505050565b6000610429610424846106e1565b610658565b90508281526020810184848401111561044157600080fd5b61044c84828561078d565b509392505050565b600082601f83011261046557600080fd5b813561047584826020860161034d565b91505092915050565b600082601f83011261048f57600080fd5b813561049f8482602086016103aa565b91505092915050565b600082601f8301126104b957600080fd5b81356104c9848260208601610416565b91505092915050565b6000813590506104e1816108e8565b92915050565b6000602082840312156104f957600080fd5b600082013567ffffffffffffffff81111561051357600080fd5b61051f84828501610454565b91505092915050565b60006020828403121561053a57600080fd5b600082013567ffffffffffffffff81111561055457600080fd5b6105608482850161047e565b91505092915050565b60006020828403121561057b57600080fd5b600082013567ffffffffffffffff81111561059557600080fd5b6105a1848285016104a8565b91505092915050565b6000602082840312156105bc57600080fd5b60006105ca848285016104d2565b91505092915050565b60006105de82610711565b6105e8818561071c565b93506105f881856020860161079c565b610601816108d7565b840191505092915050565b61061581610783565b82525050565b6000602082019050818103600083015261063581846105d3565b905092915050565b6000602082019050610652600083018461060c565b92915050565b6000604051905081810181811067ffffffffffffffff8211171561067f5761067e6108a8565b5b8060405250919050565b600067ffffffffffffffff8211156106a4576106a36108a8565b5b602082029050602081019050919050565b600067ffffffffffffffff8211156106d0576106cf6108a8565b5b602082029050602081019050919050565b600067ffffffffffffffff8211156106fc576106fb6108a8565b5b601f19601f8301169050602081019050919050565b600081519050919050565b600082825260208201905092915050565b600061073882610783565b915061074383610783565b9250827fffffffffffffffffffffffffffffffffffffffffffffffffffffffffffffffff038211156107785761077761084a565b5b828201905092915050565b6000819050919050565b82818337600083830152505050565b60005b838110156107ba57808201518184015260208101905061079f565b838111156107c9576000848401525b50505050565b600060028204905060018216806107e757607f821691505b602082108114156107fb576107fa610879565b5b50919050565b600061080c82610783565b91507fffffffffffffffffffffffffffffffffffffffffffffffffffffffffffffffff82141561083f5761083e61084a565b5b600182019050919050565b7f4e487b7100000000000000000000000000000000000000000000000000000000600052601160045260246000fd5b7f4e487b7100000000000000000000000000000000000000000000000000000000600052602260045260246000fd5b7f4e487b7100000000000000000000000000000000000000000000000000000000600052604160045260246000fd5b6000601f19601f8301169050919050565b6108f181610783565b81146108fc57600080fd5b5056fea2646970667358221220e685b976104619c9426786cd03f06920804150a01cdd0f5afbc565da18a8c37364736f6c63430008000033",
  "immutableReferences": {},
  "source": "// SPDX-License-Identifier: GPL-3.0\n\npragma solidity ^0.8.0;\n\n/**\n * @title Storage\n * @dev Store & retrieve value in a variable\n */\ncontract Storage {\n    uint256 number;\n    string name;\n\n    /**\n     * @dev Store value in variable\n     * @param num value to store\n     */\n    function store(uint256 num) public {\n        number = num;\n    }\n\n    /**\n     * @dev Return value\n     * @return value of 'number'\n     */\n    function retrieve() public view returns (uint256) {\n        return number;\n    }\n\n    function setName(string memory _name) public {\n        name = _name;\n    }\n\n    function getName() public view returns (string memory) {\n        return name;\n    }\n\n    function sumNumbersBySolidity(uint256[] memory _numbers)\n        public\n        pure\n        returns (uint256 result)\n    {\n        for (uint256 index = 0; index < _numbers.length; index++) {\n            result += _numbers[index];\n        }\n    }\n\n    function sumNumbersByAssembly(string[] memory _numbers)\n        public\n        pure\n        returns (uint256 result)\n    {\n        for (uint256 i = 0; i < _numbers.length; i++) {\n            assembly {\n                result := add(\n                    result,\n                    mload(add(add(_numbers, 0x20), mul(i, 0x20)))\n                )\n            }\n        }\n    }\n}\n",
  "sourcePath": "/Users/scene/Documents/solidity_workspace/Insurance/contracts/Storage.sol",
  "compiler": {
    "name": "solc",
    "version": "0.8.0+commit.c7dfd78e.Emscripten.clang"
  },
  "schemaVersion": "3.4.3",
  "updatedAt": "2022-01-06T09:32:26.391Z",
  "devdoc": {
    "details": "Store & retrieve value in a variable",
    "kind": "dev",
    "methods": {
      "retrieve()": {
        "details": "Return value",
        "returns": {
          "_0": "value of 'number'"
        }
      },
      "store(uint256)": {
        "details": "Store value in variable",
        "params": {
          "num": "value to store"
        }
      }
    },
    "title": "Storage",
    "version": 1
  },
  "userdoc": {
    "kind": "user",
    "methods": {},
    "version": 1
  }
}