{
  "contractName": "Test",
  "abi": [
    {
      "inputs": [
        {
          "internalType": "string",
          "name": "str",
          "type": "string"
        }
      ],
      "name": "BuyAndFree22457070633",
      "outputs": [],
      "stateMutability": "nonpayable",
      "type": "function"
    }
  ],
  "bytecode": "0x608060405234801561001057600080fd5b506101cd806100206000396000f3fe608060405234801561001057600080fd5b506004361061002b5760003560e01c80635258c99b14610030575b600080fd5b61004a600480360381019061004591906100b7565b61004c565b005b50565b600061006261005d84610129565b6100f8565b90508281526020810184848401111561007a57600080fd5b610085848285610159565b509392505050565b600082601f83011261009e57600080fd5b81356100ae84826020860161004f565b91505092915050565b6000602082840312156100c957600080fd5b600082013567ffffffffffffffff8111156100e357600080fd5b6100ef8482850161008d565b91505092915050565b6000604051905081810181811067ffffffffffffffff8211171561011f5761011e610168565b5b8060405250919050565b600067ffffffffffffffff82111561014457610143610168565b5b601f19601f8301169050602081019050919050565b82818337600083830152505050565b7f4e487b7100000000000000000000000000000000000000000000000000000000600052604160045260246000fdfea264697066735822122041a01295d35cc920e48d32fc057d9954f706fc21376be13e7e9e01bd79e36ec264736f6c63430008000033",
  "immutableReferences": {},
  "source": "pragma solidity ^0.8.0;\ncontract Test {\n    function BuyAndFree22457070633(string memory str) public {\n\n    }\n}",
  "sourcePath": "/Users/scene/Documents/solidity_workspace/Insurance/contracts/Test.sol",
  "compiler": {
    "name": "solc",
    "version": "0.8.0+commit.c7dfd78e.Emscripten.clang"
  },
  "schemaVersion": "3.4.3",
  "updatedAt": "2022-01-05T07:34:07.383Z",
  "networkType": "ethereum",
  "devdoc": {
    "kind": "dev",
    "methods": {},
    "version": 1
  },
  "userdoc": {
    "kind": "user",
    "methods": {},
    "version": 1
  }
}